:100000000C9402010C941F010C941F010C941F010D
:100010000C941F010C94F1050C941F010C941F010A
:100020000C941F010C941F010C941F010C941F01D0
:100030000C941F010C941F010C941F010C941F01C0
:100040000C941F010C941F010C941F010C941F01B0
:100050000C941F0164017D019801B101C901C9011E
:10006000C901C901C901C901C901C901C901C90140
:10007000C901C901C901C901C901C901C901C90130
:10008000C901C901C901C901C901C901C901C90120
:10009000C901C90164017D019801B101D601EF01D7
:1000A00008022102390239023902390239023902C1
:1000B0003902390239023902390239023902390268
:1000C0003902390239023902390239023902390258
:1000D000390239023902390239023902D601EF01F7
:1000E00008022102460258026A027C028E028E0237
:1000F0008E028E028E028E028E028E028E028E0280
:100100008E028E028E028E028E028E028E028E026F
:100110008E028E028E028E028E028E028E028E025F
:100120008E028E02460258026A027C029B029D02E7
:100130009F02A102A202A202A202A202A202A202A3
:10014000A202A202A202A202A202A202A202A2028F
:10015000A202A202A202A202A202A202A202A2027F
:10016000A202A202A202A202A202A2029B029D027B
:100170009F02A102AE02B002B202B402B502B50201
:10018000B502B502B502B502B502B502B502B502B7
:10019000B502B502B502B502B502B502B502B502A7
:1001A000B502B502B502B502B502B502B502B50297
:1001B000B502B502AE02B002B202B402C202DB0264
:1001C000F4020D0325032503250325032503250339
:1001D00025032503250325032503250325032503DF
:1001E00025032503250325032503250325032503CF
:1001F000250325032503250325032503C202DB026E
:10020000F4020D0311241FBECFE5D8E0DEBFCDBF41
:1002100010E0A0E6B0E0E2EFFCE002C005900D9235
:10022000A43CB107D9F720E0A4ECB0E001C01D92D6
:10023000AB3CB207E1F70E940D040C9477060C94D6
:1002400000006FEF0E9490020895CF93DF93CDB727
:10025000DEB760970FB6F894DEBF0FBECDBF90E15A
:10026000E0E6F0E0DE01119601900D929A95E1F73B
:10027000E1E0F0E0EC0FFD1FE60FF11D60810E9450
:10028000A30260960FB6F894DEBF0FBECDBFDF911C
:10029000CF91089582B5886082BD85B5816085BDA6
:1002A00085B5846085BD789489B7806489BF0895D9
:1002B00090E0FC01E154F109E432F10508F069C075
:1002C000E65DFF4F0C947106413059F42AB381E08A
:1002D00090E002C0880F991F6A95E2F7822B8ABBD3
:1002E00008952AB381E090E002C0880F991F6A95B3
:1002F000E2F7809582238ABB0895413061F427B3E9
:1003000081E090E0062E02C0880F991F0A94E2F760
:10031000822B87BB0FC027B381E090E0062E02C07E
:10032000880F991F0A94E2F78095822387BB0DC03E
:10033000413059F424B381E090E002C0880F991F46
:100340006A95E2F7822B84BB089524B381E090E0A4
:1003500002C0880F991F6A95E2F78095822384BBBB
:100360000895413059F421B381E090E002C0880F34
:10037000991F6A95E2F7822B81BB089521B381E032
:1003800090E002C0880F991F6A95E2F7809582235A
:1003900081BB089590E0FC01E154F109E432F105DC
:1003A00008F067C0E25BFF4F0C947106413059F4CE
:1003B0002BB381E090E002C0880F991F6A95E2F7A5
:1003C000822B8BBB08952BB381E090E002C0880F95
:1003D000991F6A95E2F7809582238BBB089541307F
:1003E00059F428B381E090E002C0880F991F6A9504
:1003F000E2F7822B88BB089528B381E090E002C029
:10040000880F991F6A95E2F78095822388BB08952B
:10041000413059F425B381E090E002C0880F991F64
:100420006A95E2F7822B85BB089525B381E090E0C1
:1004300002C0880F991F6A95E2F78095822385BBD9
:100440000895413059F422B381E090E002C0880F52
:10045000991F6A95E2F7822B82BB089522B381E04F
:1004600090E002C0880F991F6A95E2F78095822379
:1004700082BB089590E0FC01E154F109E432F105FA
:1004800008F04CC0EE58FF4F0C94710629B381E080
:1004900090E0062E02C0880F991F0A94E2F730E020
:1004A0008223932302C0959587956A95E2F7089574
:1004B00026B381E090E0062E02C0880F991F0A94AF
:1004C000E2F730E08223932302C0959587956A95E1
:1004D000E2F7089523B381E090E0062E02C0880F72
:1004E000991F0A94E2F730E08223932302C0959586
:1004F00087956A95E2F7089520B381E090E0062E93
:1005000002C0880F991F0A94E2F730E082239323F8
:1005100002C0959587956A95E2F7089580E0089561
:1005200090E0FC01E154F109E432F10558F4EA5697
:10053000FF4F0C9471066ABB089567BB089564BBB6
:10054000089561BB089590E0FC01E154F109E432A3
:10055000F10558F4E654FF4F0C9471066BBB0895F7
:1005600068BB089565BB089562BB089590E0FC01E7
:10057000E154F109E432F10508F067C0E252FF4F9F
:100580000C947106413059F42BB381E090E002C025
:10059000880F991F6A95E2F7822B8BBB08952BB3C6
:1005A00081E090E002C0880F991F6A95E2F780957C
:1005B00082238BBB0895413059F428B381E090E049
:1005C00002C0880F991F6A95E2F7822B88BB0895B5
:1005D00028B381E090E002C0880F991F6A95E2F786
:1005E0008095822388BB0895413059F425B381E07A
:1005F00090E002C0880F991F6A95E2F7822B85BBB5
:10060000089525B381E090E002C0880F991F6A9594
:10061000E2F78095822385BB0895413059F422B3D7
:1006200081E090E002C0880F991F6A95E2F7822B63
:1006300082BB089522B381E090E002C0880F991F29
:100640006A95E2F78095822382BB08956295607F68
:10065000823479F018F4813431F00895833479F0DC
:10066000843499F008958BB38F708BBB8BB3862B3A
:100670008BBB88B38F7088BB88B3862B88BB85B350
:100680008F7085BB85B3862B85BB82B38F7082BB91
:1006900082B3682B62BB089541E061E084E40E946C
:1006A000CA018FE99FE00197F1F700C0000040E028
:1006B00061E084E40E94CA018FE99FE00197F1F7AD
:1006C00000C000000895CF93C82F682F62956F7007
:1006D00084E40E94260340E060E084E40E94CA01B2
:1006E0000E944C036C2F84E40E9426030E944C035A
:1006F0008FEC97E00197F1F700C00000CF910895CB
:100700002FEF81EE94E0215080409040E1F700C04F
:10071000000060EF84E40E94900241E060E084E425
:100720000E94580141E061E084E40E94580182E0A7
:100730000E9463038FE19EE40197F1F700C000007F
:1007400088E20E9463038FEC97E00197F1F700C005
:1007500000008EE00E9463038FEC97E00197F1F7B1
:1007600000C0000081E00E9463038FE19EE40197D6
:10077000F1F700C0000086E00E9463038FEC97E071
:100780000197F1F700C000000895CF93C82F682F9C
:1007900062956F7084E40E94260341E060E084E487
:1007A0000E94CA010E944C036C2F84E40E9426031D
:1007B0000E944C03CF910895CF93DF93EC01888181
:1007C000882331F021960E94C50389918111FBCFC6
:1007D000DF91CF9108959FEF980F923020F49FEF13
:1007E000960F903120F080E88093C4000BC08130D8
:1007F00021F461586093C40005C0823019F461543B
:100800006093C4008091C4000E9463038FEC97E062
:100810000197F1F700C0000008950E9402060E94AF
:10082000800381E40E942101A09AA19AA29AA39A2E
:10083000A49AA59A80E890E00E94DC0361E082E03F
:100840000E94EB038EE890E00E94DC030E944A01C4
:10085000CDEC0E941B068093CA008F3F09F407C1AC
:10086000813409F0E5C02FE78AE196E0215080400D
:100870009040E1F700C0000081E00E94630388E936
:1008800090E00E94DC0367E081E00E94EB032FEF21
:1008900080E792E0215080409040E1F700C00000E6
:1008A0000E941B068093C8008F3FD1F30E94C503AE
:1008B0002FEF82E597E0215080409040E1F700C0A3
:1008C00000000E941B068093C9008F3FD1F30E9455
:1008D000C5032FEF82E597E0215080409040E1F77B
:1008E00000C000008091C800880F8056982F990F93
:1008F000990F890F9091C9009053890F8093C5007B
:1009000081E00E94630381EA90E00E94DC0369E0D9
:1009100081E00E94EB032FEF84E39CE021508040B4
:100920009040E1F700C000000E941B068093C800C1
:100930008F3FD1F30E94C5032FEF82E597E021504E
:1009400080409040E1F700C000000E941B068093A9
:10095000C9008F3FD1F30E94C5032FEF82E597E0D6
:10096000215080409040E1F700C000008091C80015
:10097000880F8056982F990F990F890F9091C90071
:100980009053890F8093C60081E00E9463038CEA34
:1009900090E00E94DC0369E081E00E94EB032FEF0E
:1009A00084E39CE0215080409040E1F700C00000CB
:1009B0000E941B068093C8008F3FD1F30E94C5039D
:1009C0002FEF82E597E0215080409040E1F700C092
:1009D00000000E941B068093C9008F3FD1F30E9444
:1009E000C5032FEF82E597E0215080409040E1F76A
:1009F00000C000008091C800880F8056982F990F82
:100A0000990F890F9091C9009053890F8093C70067
:100A100081E00E94630380E890E00E94DC0361E0D3
:100A200082E00E94EB038EE890E00E94DC031FC08E
:100A300081E00E94630387EB90E00E94DC032FEFCC
:100A400089E698E1215080409040E1F700C0000025
:100A500081E00E94630380E890E00E94DC0361E093
:100A600082E00E94EB038EE890E00E94DC03A898ED
:100A7000A99AAA9AAB9AAC9AAD9A6091C7006C9F5A
:100A8000812D1124869586958695880F982F990F2C
:100A9000990F890F681B81E40E9425018FE097E27E
:100AA0000197F1F700C00000A89AA998AA9AAB9AFA
:100AB000AC9AAD9A6091C7006C9F612D1124669528
:100AC0006695669581E40E9425018FE097E2019783
:100AD000F1F700C00000A89AA99AAA98AB9AAC9A1C
:100AE000AD9A6091C6006C9F812D112486958695E4
:100AF0008695880F982F990F990F890F681B81E4AD
:100B00000E9425018FE097E20197F1F700C00000F5
:100B1000A89AA99AAA9AAB98AC9AAD9A6091C60085
:100B20006C9F612D112466956695669581E40E94FF
:100B300025018FE097E20197F1F700C00000A89A25
:100B4000A99AAA9AAB9AAC98AD9A6091C5006C9F8D
:100B5000812D1124869586958695880F982F990F5B
:100B6000990F890F681B81E40E9425018FE097E2AD
:100B70000197F1F700C00000A89AA99AAA9AAB9A27
:100B8000AC9AAD986091C5006C9F612D112466955B
:100B90006695669581E40E9425018FE097E20197B2
:100BA000F1F700C000008091C7008C3338F010923C
:100BB000C7008091C6008F5F8093C6008091C600F9
:100BC0008C3338F01092C6008091C5008F5F8093FF
:100BD000C5008091C500883108F43BCE1092C50055
:100BE00038CE1F920F920FB60F9211248F938091DF
:100BF000C7008F5F8093C7008F910F900FBE0F903B
:100C00001F9018956FE082E40E94900241E064E03A
:100C100082E40E94B60241E065E082E40E94B602EE
:100C200041E066E082E40E94B60241E067E082E4CF
:100C30000E94B60208950F931F93CF93DF93CDB711
:100C4000DEB760970FB6F894DEBF0FBECDBF80E170
:100C5000E0E7F0E0DE01119601900D928A95E1F750
:100C600000E041E060E082E40E94CA0141E061E00E
:100C700082E40E94CA0141E062E082E40E94CA016B
:100C800041E063E082E40E94CA0140E0602F82E418
:100C90000E94CA0110E064E0610F82E40E943A02FF
:100CA00081110DC0E1E0F0E0EC0FFD1F84E0089F32
:100CB000E00DF11D1124E10FF11D808107C01F5FC0
:100CC000143049F70F5F043061F68FEF60960FB66E
:100CD000F894DEBF0FBECDBFDF91CF911F910F9172
:100CE0000895EE0FFF1F0590F491E02D0994F894FC
:020CF000FFCF34
:100CF2003F065B4F666D7D477F6F777F393F797126
:100D02003738392F3435362A3132332D41303D2BA5
:100D12007072657373204F4E2F4320746F0073659A
:100D22007420636C6F636B00686F7572733D2D2D59
:100D3200006D696E757465733D2D2D007365636F6B
:100D42006E64733D2D2D0077726F6E672063686F3E
:040D5200696365006C
:00000001FF
